:020000040000FA
:10000000462B82070B3416341D340934123419344C
:1000100007340D341134043408340C3402340434FD
:1000200006341820800408001820FF3A80050800D4
:100030002430951925300310960D160784001508F5
:100040000739820701340234043408341034203470
:10005000403480340F39820750344434D0340C3467
:10006000D0340C34D0343C34D034CC34F434C034B8
:100070005C34C03400346C340339820700340134FA
:100080000234FF3497000310970D970D970D170852
:10009000140782071C34363463346B3463343634CB
:1000A0001C34003418341C34183418341834183400
:1000B0007E3400343E346334603438340C34663477
:1000C0007F3400343E34633460343C346034633411
:1000D0003E34003438343C34363433347F343034B6
:1000E000783400347F34033403343F346034633471
:1000F0003E3400341C34063403343F3463346334F8
:100100003E3400347F346334303418340C340C34CF
:100110000C3400343E34633463343E34633463342B
:100120003E3400343E34633463347E3460343034DF
:100130001E3400348D00051006109E2818308E00E5
:10014000000005148E0BA228BD238D0B9B280534BF
:1001500005309F1F06309A209F1FC1289F138D00D6
:1001600018308E00051006108E0BB4280000BD2339
:10017000061400008D0BB02805309F1F04309A2014
:1001800008009F17AF288D00C52800000510C8285B
:10019000000002309700970BCB2810300514970011
:1001A000970BD028BD2320309700970BD528BD236F
:1001B00000008D0BC628033005109700970BDE2832
:1001C0000000103005149700970BE428BD231D3064
:1001D0009700970BE928EC28BD23080004308E0017
:1001E0008C004430840011080007840A950012082E
:1001F0000007840A960004088D00182000050319E2
:100200008C030D0884008E0BF3288C080800A820AE
:100210009F1AB72B7A2299228D229922D622191859
:1002200013299A0B6E2B1B080A3C9A009A0D9A0D03
:10023000920AEE200319732B0B309700970B1E299F
:100240009203B822D6229901093091000130920020
:10025000100893001E0890009801DE2219104D0826
:10026000013C03199F16861E1915061E9915861C3A
:100270009914061D19169F1CB32B991899169918D5
:100280009F10000099101F1DB02B191A1914191A6C
:100290001F110000191223309700970B4D29000001
:1002A000991EA72B980A8D22D622EE20031D9803B3
:1002B0000C309700970B5A299E0A07309E0560293B
:1002C0008D22D62299129910191991039919910A20
:1002D00038309700970B6A298D22D622EE20031919
:1002E000832B7229732974291919910A9919910379
:1002F0002E307A297B2908309700970B7D29191118
:10030000991105108329842908308C002430840039
:1003100094018A29051406309700970B8D29CF0187
:100320000008840AF03C031D8E2B0008840AFF3C61
:10033000031D912B1408CF000000940A8C0B902908
:10034000051003309700970BA329073005148C0084
:100350000008840AF03C031D922B0008840AFF3C2D
:10036000031D952B1408CF000000940A8C0BA829BC
:100370000B309700970BBA29D622CF080319692BA7
:10038000DE22DE22DE22DE22DE22DE22DE22051058
:100390001030A4008030A500CD294F084F078C00F5
:1003A000253E840005140F300C028E008F008E1B3A
:1003B000962B0F308C00840384030008840A840A7F
:1003C000800084038C0BDB2907309700970BE6290C
:1003D000051003309700970BEB29000005148F1BC5
:1003E000A12B840384030008840A840A8000840308
:1003F0008E0BF1290F08113C8D0002309700970BEE
:10040000FF298D0BFD29042A052A062A8D22B822F0
:100410007A22B82210308D000510C8200030660006
:1004200086012430840010308E0009308F000510C2
:1004300003309700970B1A2A0000051400000A30B9
:100440009700970B212ABD230008860007308C00F7
:10045000840A0610860C8C0B292A000806108600D8
:1004600007308C0084030610860C8C0B332A0A306C
:1004700006109700970B3A2ABD23000002308D002A
:100480008F0B172A0510C820452A840A840A8E0B70
:10049000152A9401D62239309700970B4D2A000077
:1004A00008308E00D62218309700970B552AF92273
:1004B00004309700970B5A2AD62218309700970BD2
:1004C0005F2AF92202309700970B642A672A940A60
:1004D0008E0B522A1C308D00C620CE2301309F1A6D
:1004E000A000FE3066009E0A07309E05CE08031D60
:1004F000CE030729051013088F0010089300180871
:10050000970098010130CC000230CD000514112372
:100510000F08930017089800080005100230970094
:10052000970B902A1108CC001208CD000514112356
:100530000800051003309700970B9C2A0000051453
:1005400004308C00443084004C080007840A950075
:100550004D080007840A960004088D0014200D0839
:1005600084008C0BA42A09309700970BB52A080049
:10057000051003309700970BBB2A043005148C003C
:10058000443084004C080007840A95004D08000799
:10059000840A960004088D0011200D0884008C0B3D
:1005A000C22A0A309700970BD32A0800051003309F
:1005B0009700970BD92A0000051408009D0A1D0812
:1005C0000A3C031DF02A9D019C0A1C080A3C031DDD
:1005D000F32A9C019B0A02309700970BED2A080032
:1005E0000000F22AF32AF42A03309700970BF62A28
:1005F00008001D0842208D001C0842208C001B08AA
:10060000422007230C0807230D0807230800860053
:10061000860C860C860C860C860C860C860C0610C6
:100620000800033098059308031998019F111F12C1
:1006300098181F161808013A03199F15033A031951
:100640009F150310130D2A208C000310130D013E7B
:100650002A208D00181CB62B0C068D068C06043043
:100660008E00443084000C083C209F19003C800020
:10067000840A0D083C201F1A003C8000840A8C0C60
:100680008C0C8D0C8D0C8E0B332B08000D308400E0
:1006900043308C008001840A8C0B4A2B2430840068
:1006A0000F308C0010308000840A80308000840A73
:1006B0008C0B522BF030C200FF30C3000E306500AF
:1006C000FE30660001309A00CE00A20089018D2222
:1006D000232939309700970B6B2BC7292D309700B2
:1006E000970B702B732B0B309700970B752BD62223
:1006F0003A309700970B7A2BD6220C309700970B45
:100700007F2B000033290000CE08031D742906301A
:10071000CE009E0A07309E058D2B7B29840A00009F
:10072000912B9D29840A0000952BB529363097001E
:10073000970B982B9B2B0C088E008F0003198F179B
:10074000E82939309700970BA32BA62B062A8D2278
:100750008D22D62239309700970BAC2B00006129EF
:10076000191E1F154A29991C9F1442292F2BD62286
:10077000861C462B1430C3200A2A05161F1F05129B
:100780002008A10BCB2BA1001F1BC92B00001F179A
:1007900008001F130800CC2BCD2B0800D6223630C2
:1007A000A20BF02B831608148312A008031DF42B50
:1007B00008083F39A000080E0C398F0003108F0C79
:1007C0008F0C03101B0C97000310970D17070F07D2
:1007D0000120A200890A0908343C031989012B3041
:1007E0009700970BF12B0800A0010230A2003030D7
:0207F000F02BEC
:02400E00FA3F77
:1042000064002F002D0068002D002F00B5002D0048
:10421000640028002D00AF002D00680064006D00D0
:1042200075007500A1001E005B001E002100A400A7
:104230002D00640028002D00AF002D0068006400F0
:104240006D0075007500A1001E005B001E002100BE
:10425000A4002D00640028002D00AF002D00680090
:0842600064006D00750075009B
:00000001FF
